:020000040800F2
:100000000000022085230008212300082323000884
:1000100025230008272300082923000800000000EA
:100020000000000000000000000000002B2300087A
:100030002D230008000000002F23000831230008B2
:10004000D5230008D5230008D5230008D5230008B0
:10005000D5230008D5230008D5230008D5230008A0
:10006000D5230008D5230008D5230008D523000890
:10007000D5230008D5230008D5230008D523000880
:10008000D5230008D5230008D5230008D523000870
:10009000D5230008D5230008D5230008D523000860
:1000A000D5230008D5230008D5230008D523000850
:1000B000D5230008D5230008D5230008D523000840
:1000C000D5230008D5230008D5230008D523000830
:1000D000D5230008D5230008D5230008D523000820
:1000E000D5230008D5230008D5230008D523000810
:1000F000D5230008D5230008D5230008D523000800
:10010000D5230008D5230008D5230008D5230008EF
:10011000D5230008D5230008D5230008D5230008DF
:10012000D5230008D5230008D5230008D5230008CF
:10013000D5230008D5230008D5230008D5230008BF
:10014000D5230008D5230008D5230008D5230008AF
:10015000D5230008D5230008D5230008D52300089F
:10016000D5230008D5230008D5230008D52300088F
:10017000D5230008D5230008D5230008000000007F
:08018000D5230008D523000877
:1001900010B5054C237833B9044B13B10448AFF3C1
:1001A00000800123237010BD7000002000000000BB
:1001B000742C000808B5034B1BB103490348AFF387
:1001C000008008BD0000000074000020742C0008AE
:1001D00053B94AB9002908BF00281CBF4FF0FF31AE
:1001E0004FF0FF3000F072B9ADF1080C6DE904CEAC
:1001F00000F006F8DDF804E0DDE9022304B0704702
:100200002DE9F047089E04468846002B4BD18A42D0
:10021000154667D9B2FA82F24AB1C2F1200701FA53
:1002200002F320FA07F7954047EA030894404FEAA3
:10023000154E230CB8FBFEF71FFA85FC0EFB178842
:1002400043EA084307FB0CF1994209D9EB1807F17F
:10025000FF3080F01B81994240F21881023F2B440D
:100260005B1AA4B2B3FBFEF00EFB103344EA034466
:1002700000FB0CFCA44509D92C1900F1FF3380F0D8
:100280000781A44540F2048102382C4440EA07402B
:10029000A4EB0C0400271EB1D4400023C6E90043A0
:1002A0003946BDE8F0878B4209D9002E00F0EB807B
:1002B0000027C6E9000138463946BDE8F087B3FAA1
:1002C00083F7002F47D18B4202D3824200F2FA809B
:1002D000841A61EB030301209846002EE0D0C6E9A2
:1002E0000048DDE702B9FFDEB2FA82F2002A40F0F0
:1002F0008F80491B4FEA154E1FFA85F80127B1FB85
:10030000FEFC230C0EFB1C1143EA014308FB0CF11D
:10031000994207D9EB180CF1FF3002D2994200F252
:10032000CD808446591AA3B2B1FBFEF00EFB101427
:1003300043EA044408FB00F8A04507D92C1900F152
:10034000FF3302D2A04500F2B6801846A4EB0804A1
:1003500040EA0C409FE7C7F1200CBB4022FA0CFE9C
:100360004EEA030E01FA07F420FA0CF521FA0CF319
:100370004FEA1E482543B3FBF8F92C0C08FB193350
:100380001FFA8EFA44EA034309FB0AF49C4202FA7C
:1003900007F200FA07F10BD91EEB030309F1FF3056
:1003A00080F087809C4240F28480A9F10209734466
:1003B0001B1BADB2B3FBF8F008FB103345EA034456
:1003C00000FB0AFAA24508D91EEB040400F1FF3332
:1003D0006BD2A24569D90238744440EA0940A0FBB7
:1003E0000289A4EB0A044C45C2464B4654D351D073
:1003F000002E69D0B1EB0A0564EB030404FA0CFC8F
:10040000FD40FC404CEA0505C6E90054002747E7DB
:10041000C2F1200320FA03F7954001FA02F021FA15
:1004200003F34FEA154E3843010CB3FBFEF71FFAF6
:1004300085F80EFB173341EA034107FB08F38B42B3
:1004400004FA02F407D9691807F1FF3C2FD28B4256
:100450002DD9023F2944CB1A81B2B3FBFEF00EFB2B
:10046000103341EA034100FB08F38B4207D96918B6
:1004700000F1FF3C17D28B4215D902382944C91A22
:1004800040EA07473BE73746304609E70746E7E6D5
:100490001846FBE64145ABD2B8EB020A69EB0E0207
:1004A00001381346A4E76046E9E7184695E7674632
:1004B000D1E781467CE702382C4447E7ACF1020CD7
:1004C0002B442FE7384608E73746E9E6704700BF78
:1004D000034613F8012B002AFBD1181A0138704784
:1004E00001F0FF01102A2BDB10F0070F08D010F8E5
:1004F000013B013A8B422DD010F0070F42B3F6D1E9
:10050000F0B441EA012141EA014122F007047FF001
:1005100000070023F0E80256083C85EA010586EA58
:10052000010685FA47F5A3FA87F586FA47F6A5FA94
:1005300087F68EB9EED1F0BC01F0FF0102F00702A0
:1005400032B110F8013B013A83EA010313B1F8D14B
:100550000020704701387047002D06BF354603382C
:10056000073815F0010F07D1013015F4807F02BF65
:10057000013015F4C03F0130F0BC0138704700BFB6
:1005800010B504460E4B18784FF47A73B3FBF0F3B2
:100590000C4A1068B0FBF3F000F09CF868B90F2C1F
:1005A00001D901200AE0002221464FF0FF3000F07F
:1005B0005DF8034B5C60002000E0012010BD00BF2F
:1005C000000000200800002008B50B4B1A6842F418
:1005D00000721A601A6842F480621A601A6842F463
:1005E00080721A60032000F02FF80020FFF7C8FF88
:1005F00001F0E2FD002008BD003C0240034A116802
:10060000034B1B780B441360704700BFA000002011
:1006100000000020014B1868704700BFA0000020B8
:1006200038B50446FFF7F6FF0546B4F1FF3F02D0A8
:10063000044B1B781C44FFF7EDFF401BA042FAD38C
:1006400038BD00BF00000020074AD36823F4E063F0
:100650001B041B0C000200F4E060184340F0BF6074
:1006600040F40030D060704700ED00E030B4174B2C
:10067000DB68C3F30223C3F10704042C28BF04245E
:100680001D1D062D18D9033B4FF0FF3505FA04F464
:1006900021EA0401994005FA03F322EA030319430E
:1006A00000280BDB0901C9B200F1604000F5614090
:1006B00080F8001330BC70470023E5E700F00F001E
:1006C0000901C9B2024B1954F4E700BF00ED00E084
:1006D00014ED00E00138B0F1807F0AD2064B58607B
:1006E000064AF02182F823100020986007221A6041
:1006F00070470120704700BF10E000E000ED00E00F
:1007000000230F2B00F2D780F0B482B039E007222B
:1007100000E00022B2403A430234674E46F82420FB
:10072000664A1468EA4302EA04064F6817F4803FF9
:1007300001D045EA0406614C2660646802EA0406BA
:100740004F6817F4003F01D045EA04065B4C666031
:10075000A46802EA04064F6817F4801F01D045EA36
:100760000406564CA660E46822404E6816F4001F4A
:1007700001D045EA0402514CE26001330F2B00F234
:10078000978001229A400C6804EA0205AA42F4D13B
:100790004C68022C01D0122C10D1DE08083650F81B
:1007A00026C003F00704A7000F24BC402CEA040C69
:1007B0000C69BC4044EA0C0440F8264004685F0021
:1007C0000326BE40F64306EA040C4C6804F003041A
:1007D000BC4044EA0C0404604C6804F1FF3CBCF1EA
:1007E000010F03D9112C01D0122C10D1846806EA14
:1007F000040CCC68BC4044EA0C048460446824EADD
:1008000002024C68C4F300149C4014434460C26864
:1008100016408A68BA403243C2604A6812F0805F6C
:10082000ABD000220192264A546C44F480445464B4
:10083000526C02F480420192019A9C08A61C1E4A46
:1008400052F8267003F0030296000F22B24027EA06
:1008500002071C4A90423FF45CAF02F5806290426E
:100860001AD002F58062904218D002F58062904260
:1008700016D002F58062904214D002F58062904258
:1008800012D002F58062904210D002F58062904250
:100890003FF43DAF08223DE701223BE7022239E762
:1008A000032237E7042235E7052233E7062231E742
:1008B00002B0F0BC7047704700380140003C014076
:1008C000003802400000024012B9090481617047FB
:1008D0008161704703685A6912F4806F0DD06FF41C
:1008E00080625A610423036400230363202280F89A
:1008F0003D2080F83C300120704700207047F8B55B
:1009000006460C4617461D461EE02DB1FFF782FE37
:10091000069BC01AA84217D900233363202286F809
:100920003D2086F83E3086F83C3003201AE03368DC
:100930005B6924EA03039BB2B3FA83F35B099F422A
:100940000FD1B5F1FF3FE0D1C4F30743012BEED047
:1009500033689B6924EA03039BB2B3FA83F35B0910
:10096000EDE70020F8BDF8B504460D4616461F46D3
:1009700032E01A6842F400721A6023686FF48062F1
:100980005A610423236400232363202284F83D203A
:1009900084F83C3001202DE026B1FFF73BFEC01B60
:1009A000B04219D900232363202284F83D2084F823
:1009B0003C3003201EE023685B6925EA03039BB2F9
:1009C000003318BF0123A3B123685A6912F4806F62
:1009D000CFD1B6F1FF3FDFD1C5F30743012BEAD0FA
:1009E00023689B6925EA03039BB2003318BF0123E8
:1009F000E9E70020F8BD0000F0B583B004460D46DD
:100A000016461F46C36A042B0DD0012B0BD013F5DD
:100A1000803F08D0036B122B0AD10268136843F49D
:100A20008073136004E02268136843F480731360DA
:100A30000097334600224FF001112046FFF75FFF79
:100A400058BB2369B3F5804F10D1236805F0FE052C
:100A50001D613B46324615492046FFF784FF034699
:100A6000E0B1236C042B1ED1012317E0EB112268A7
:100A700003F0060343F0F00313613B4632460C4992
:100A80002046FFF770FF20B1236C042B09D101230E
:100A900004E02368EDB21D61DBE70323184603B0D1
:100AA000F0BD0323FAE70323F8E700BF02000100CB
:100AB000080001002DE9F04184B004460D461646B9
:100AC0001F46C26A01680B6843F480630B60042A06
:100AD0000DD0012A0BD012F5803F08D0036B112BEB
:100AE0000AD10268136843F48073136004E022683B
:100AF000136843F4807313600097334600224FF06D
:100B000001112046FFF7FBFE002852D12369B3F5FF
:100B1000804F12D1236845F00105EDB21D613B46BF
:100B200032462A492046FFF71EFF0346002841D0DF
:100B3000236C042B48D101233CE04FEAE51808F070
:100B40000608236848F0F0021A613B463246204905
:100B50002046FFF708FF20B1236C042B2ED1012380
:100B600028E02368EDB21D613B4632461749204616
:100B7000FFF7F9FE20B1236C042B21D1012319E0EA
:100B8000002203922368596903919969039103999B
:100B9000196841F480711960009733464FF00111D4
:100BA0002046FFF7ACFE68B9226848F0F1031361F4
:100BB000B5E70323184604B0BDE8F0810323F9E745
:100BC0000323F7E70323F5E70323F3E7020001001C
:100BD0000800010070B504460D46164623685B699F
:100BE00013F0800F19D12046FFF774FEB8B9B5F1A4
:100BF000FF3FF3D025B1FFF70DFD801BA842EDD9D3
:100C0000236C43F02003236400232363202284F811
:100C10003D2084F83C30032000E0002070BD01201E
:100C2000FCE770B504460D46164623685B6913F071
:100C3000040F19D12046FFF74DFEB8B9B5F1FF3FBB
:100C4000F3D025B1FFF7E6FC801BA842EDD9236C59
:100C500043F02003236400232363202284F83D20F3
:100C600084F83C30032000E0002070BD0120FCE748
:100C700070B505460C4616462B685A6912F0400FAF
:100C800022D15A6912F0100F11D124B1FFF7C2FC22
:100C9000801BA042F0D92B6C43F020032B6420234F
:100CA00085F83D30002385F83C30032070BD6FF09F
:100CB00010025A6100232B642B63202285F83D200B
:100CC00085F83C300120F1E70020EFE7002800F034
:100CD000828010B5044690F83D30002B41D024238B
:100CE00084F83D302268136823F00103136000F09C
:100CF0009BFD3A4BA3FB00239B0C22685360616869
:100D0000374A914232D80133226813626368344A09
:100D1000934235D85B00B0FBF3F0C0F30B03032B19
:100D200000D804202368D861E369216A22680B4354
:100D300013602369E16822680B4393606369A169CA
:100D400022680B43D3602268136843F001031360E9
:100D500000202064202384F83D30206384F83E0086
:100D600010BD80F83C3001F047FAB8E74FF49672B6
:100D700002FB03F31B4AA2FB03239B090133C3E7D6
:100D8000A16889B903EB4302B0FBF2F2C2F30B0294
:100D9000B2FA82F25209E2B991B903EB4303B0FB14
:100DA000F3F040F40040BDE703EB830202EB820264
:100DB000B0FBF2F2C2F30B02B2FA82F25209EAE796
:100DC00003EB830303EB8303B0FBF3F040F44040F9
:100DD000A8E70120A6E70120704700BF83DE1B4380
:100DE000A0860100D34D62102DE9F04184B0044685
:100DF0000E4690461F46FFF70DFC94F83D30DBB2DF
:100E0000202B04D00226304604B0BDE8F081054610
:100E100000901923012254492046FFF770FD002855
:100E200040F0998094F83C30012B00F0968001232B
:100E300084F83C3023681A6812F0010F03D11A6855
:100E400042F001021A602268136823F40063136001
:100E5000212384F83D30102384F83E30002323649E
:100E6000C4F824806785A3F58033E362638D23850E
:100E70002B460A9A31462046FFF7BEFD064660B172
:100E8000236C042B04D1002384F83C300126BAE7FC
:100E9000002384F83C300326B5E70023039323683E
:100EA0005A6903929B690393039B10E0236C042B04
:100EB00055D12268136843F4007313600126A2E73A
:100EC0002A460A992046FFF7ACFE00282BD1238D35
:100ED000002B32D02A460A992046FFF77BFE0028D5
:100EE000E4D1636A5A1C626222681B781361638DC5
:100EF000013B9BB26385238D013B9BB22385226816
:100F0000516911F0040FDBD0002BD9D0636A591C52
:100F100061621B781361638D013B9BB26385238DF6
:100F2000013B2385CCE7236C042B1AD1226813687C
:100F300043F400731360012665E72268136843F4E5
:100F400000731360202384F83D30002384F83E3082
:100F500084F83C3057E7022655E7022653E703267C
:100F600051E703264FE700BF020010002DE9F041D2
:100F700086B004460E4690461F46FFF74BFB94F89A
:100F80003D30DBB2202B04D00226304606B0BDE84F
:100F9000F08105460090192301228C492046FFF775
:100FA000AEFC002840F04B8194F83C30012B00F05F
:100FB0004881012384F83C3023681A6812F0010F3D
:100FC00003D11A6842F001021A602268136823F400
:100FD00000631360222384F83D30102384F83E30F0
:100FE00000232364C4F824806785A3F58033E3627B
:100FF000638D23852B460C9A31462046FFF75AFD18
:10100000064660B1236C042B04D1002384F83C30E5
:101010000126BAE7002384F83C300326B5E7238D88
:101020005BB9029323685A6902929A690292029A02
:101030001A6842F400721A607AE0012B0FD0022B7A
:101040001FD02268136843F4806313600023059364
:1010500023685A6905929B690593059B68E022689D
:10106000136823F4806313600023039323685A6991
:1010700003929A690392039A1A6842F400721A6002
:1010800056E02268136823F48063136022681368B3
:1010900043F4006313600023049323685A690492A5
:1010A0009B690493049B43E02A460C992046FFF772
:1010B000DFFD68B923681A69636A591C61621A7096
:1010C000238D013B2385638D013B9BB263852FE01C
:1010D000236C202B01D0012657E7032655E7009506
:1010E0000C9B00223A492046FFF709FC002840F0FB
:1010F000AA802268136843F40073136023681A6996
:10110000636A591C61621A70238D013B2385638DCC
:10111000013B9BB2638523681A69636A591C61624B
:101120001A70238D013B2385638D013B9BB2638540
:10113000238D002B7AD0032B4CD8012BB4D0022B5B
:10114000CDD000950C9B002221492046FFF7D7FB0C
:1011500000287AD12268136823F48063136023681F
:101160001A69636A591C61621A70238D013B2385D9
:10117000638D013B9BB2638500950C9B0022144953
:101180002046FFF7BCFB002861D12268136843F4B6
:101190000073136023681A69636A591C61621A70CC
:1011A000238D013B2385638D013B9BB263852368BF
:1011B0001A69636A591C61621A70238D013B238589
:1011C000638D013B9BB26385B2E700BF0200100054
:1011D000040001002A460C992046FFF749FDF0B9AA
:1011E00023681A69636A591C61621A70238D013B76
:1011F0002385638D013B9BB2638523685A6912F096
:10120000040F95D01A69636A591C61621A70238DA4
:10121000013B2385638D013B9BB2638588E7236C8B
:10122000202B01D00126B0E60326AEE6202384F869
:101230003D30002384F83E3084F83C30A5E6022699
:10124000A3E60226A1E603269FE603269DE60326E3
:101250009BE600BF002800F0BB8170B582B0044659
:10126000036813F0010F3BD0A74B9B6803F00C03FE
:10127000042B2CD0A44B9B6803F00C03082B21D02B
:101280006368B3F5803F4FD0B3F5A02F52D09E4B8B
:101290001A6822F480321A601A6822F480221A60D6
:1012A0006368002B50D0FFF7B5F90546964B1B68D5
:1012B00013F4003F14D1FFF7ADF9401B6428F5D9B2
:1012C00003208AE1904B5B6813F4800FD8D08E4BDB
:1012D0001B6813F4003F03D06368002B00F07A8191
:1012E000236813F0020F55D0874B9B6813F00C0F47
:1012F0003ED0854B9B6803F00C03082B33D0E3688A
:10130000002B68D0814B01221A60FFF783F9054654
:101310007D4B1B6813F0020F54D1FFF77BF9401B84
:101320000228F5D9032058E1774A136843F4803343
:101330001360B5E7744B1A6842F480221A601A6889
:1013400042F480321A60ABE7FFF764F905466E4B52
:101350001B6813F4003FC3D0FFF75CF9401B6428FF
:10136000F5D9032039E1684B5B6813F4800FC6D1CF
:10137000654B1B6813F0020F04D0E368012B01D00A
:1013800001202AE1604A136823F0F803216943EA47
:10139000C1031360236813F0080F40D0636963B37F
:1013A0005B4B01221A60FFF735F90546564B5B6F20
:1013B00013F0020F33D1FFF72DF9401B0228F5D9A6
:1013C00003200AE1504A136823F0F803216943EA35
:1013D000C1031360DEE74D4B00221A60FFF71AF9D4
:1013E0000546494B1B6813F0020FD3D0FFF712F9E3
:1013F000401B0228F5D90320EFE0454B00221A607C
:10140000FFF708F90546404B5B6F13F0020F06D05B
:10141000FFF700F9401B0228F5D90320DDE023681F
:1014200013F0040F79D0384B1B6C13F0805F33D16D
:1014300000230193344B1A6C42F080521A641B6CE7
:1014400003F080530193019B0125324B1B6813F479
:10145000807F23D0A368012B34D0052B38D02A4BB2
:101460001A6F22F001021A671A6F22F004021A673B
:10147000A368002B36D0FFF7CDF80646224B1B6F32
:1014800013F0020F48D1FFF7C5F8801B41F28833F3
:101490009842F3D90320A0E00025D6E71D4A13683F
:1014A00043F480731360FFF7B5F80646194B1B68C9
:1014B00013F4807FCED1FFF7ADF8801B0228F5D959
:1014C00003208AE0104A136F43F001031367CFE74C
:1014D0000D4B1A6F42F004021A671A6F42F00102B4
:1014E0001A67C5E7FFF796F80646074B1B6F13F020
:1014F000020F11D0FFF78EF8801B41F2883398421B
:10150000F3D9032069E000BF0038024000004742E1
:10151000800E474200700040E5B9A369002B5BD004
:10152000304A926802F00C02082A58D0022B17D0D9
:101530002D4B00221A60FFF76DF80446294B1B68FB
:1015400013F0007F42D0FFF765F8001B0228F5D9A1
:10155000032042E0234A136C23F080531364DCE73A
:10156000214B00221A60FFF755F805461D4B1B68FA
:1015700013F0007F06D0FFF74DF8401B0228F5D985
:1015800003202AE0E369226A1343626A43EA821372
:10159000A26A5208013A43EA0243E26A43EA02635A
:1015A000104A5360104B01221A60FFF733F80446CB
:1015B0000C4B1B6813F0007F06D1FFF72BF8001BC4
:1015C0000228F5D9032008E0002006E0002004E00E
:1015D00001207047012000E0002002B070BD012012
:1015E000FBE700BF0038024060004742324B9B6877
:1015F00003F00C03042B5CD0082B01D02F4870475C
:101600002DE9F04B2C4B5A6802F03F025B6813F453
:10161000800F2BD0284B5B68C3F388131E4600272E
:101620005C010025E41A65EB0705A90141EA946114
:10163000A001001B61EB0501CB0043EA5073C4001D
:10164000A01943EB07014B0243EAD0534402204662
:1016500019460023FEF7BCFD174B5B68C3F301433B
:1016600001335B00B0FBF3F0BDE8F08B124B5B681D
:10167000C3F388131E4600275C010025E41A65EBBE
:101680000705A90141EA9461A001001B61EB050176
:10169000CB0043EA5073C400A01943EB07018B024F
:1016A00043EA90538402204619460023FEF790FD3A
:1016B000D2E70348704700BF003802400024F4001E
:1016C00000127A00002800F09D8070B504464F4B50
:1016D0001B6803F00F038B4209D2CBB24B4A137045
:1016E000136803F00F038B4201D0012070BD236803
:1016F00013F0020F17D013F0040F04D0444A93687C
:1017000043F4E0539360236813F0080F04D0404A79
:10171000936843F4604393603D4A936823F0F00379
:10172000A068034393600D46236813F0010F32D085
:101730006368012B21D09A1E012A25D9344A1268E8
:1017400012F0020F60D032498A6822F0030213437C
:101750008B60FEF75FFF06462D4B9B6803F00C0382
:101760006268B3EB820F16D0FEF754FF801B41F284
:1017700088339842F0D90320B8E7254A126812F45A
:10178000003FE0D10120B1E7214A126812F0007F4A
:10179000D9D10120AAE71D4B1B6803F00F03AB4210
:1017A00009D9EAB2194B1A701B6803F00F03AB4258
:1017B00001D001209AE7236813F0040F06D0144AE1
:1017C000936823F4E053E1680B439360236813F0BC
:1017D000080F07D00E4A936823F46043216943EA57
:1017E000C1039360FFF702FF094B9B68C3F3031328
:1017F000084AD35CD840084B18600020FEF7C0FEB2
:10180000002073E70120704701206FE7003C024091
:10181000003802408C2C000808000020014B18689A
:10182000704700BF0800002008B5FFF7F7FF044B22
:101830009B68C3F38223034AD35CD84008BD00BF32
:10184000003802409C2C000808B5FFF7E7FF044B66
:101850009B68C3F34233034AD35CD84008BD00BF42
:10186000003802409C2C00082DE9F843044601682A
:101870000A6922F44052C36813430B610168CA68C5
:1018800022F4164222F00C02836800690343606967
:101890000343E06903431343CB6021684A6922F4A0
:1018A0004072A36913434B61E369B3F5004F60D005
:1018B0002368B84A934200F0148102F58062934293
:1018C00000F00F81FFF7B0FF00EB800000EB80001D
:1018D0006568AD00B0FBF5F5AF4FA7FB05356D09A9
:1018E0002E01FFF7A1FF00EB800000EB8000656890
:1018F000AD00B0FBF5F9FFF797FF00EB800000EBC0
:1019000080006568AD00B0FBF5F5A7FB05356D09F6
:101910004FF0640808FB15952D013235A7FB0535FE
:101920006D0905F0F0053544FFF77EFF00EB800000
:1019300000EB80006668B600B0FBF6F6FFF774FFB8
:1019400000EB800000EB800063689B00B0FBF3F0CD
:10195000A7FB0030400908FB10684FEA081808F19F
:101960003208A7FB0837C7F3431723682F449F604B
:101970000DE12368874A93425BD002F5806293426F
:1019800057D0FFF751FF00EB800000EB8000656847
:101990006D00B0FBF5F5804FA7FB05356D092E01F5
:1019A000FFF742FF00EB800000EB800065686D00F0
:1019B000B0FBF5F9FFF738FF00EB800000EB80008B
:1019C00065686D00B0FBF5F5A7FB05356D094FF0B7
:1019D000640808FB1595ED003235A7FB05356D0948
:1019E0006D0005F4F8753544FFF71EFF00EB80002D
:1019F00000EB800066687600B0FBF6F6FFF714FF98
:101A000000EB800000EB800063685B00B0FBF3F349
:101A1000A7FB03235B0908FB13684FEAC80808F11A
:101A20003208A7FB0837C7F3421723682F449F608B
:101A3000ADE0FFF709FF00EB800000EB8000656878
:101A40006D00B0FBF5F5544FA7FB05356D092E0170
:101A5000FFF7FAFE00EB800000EB800065686D0088
:101A6000B0FBF5F9FFF7F0FE00EB800000EB800023
:101A700065686D00B0FBF5F5A7FB05356D094FF006
:101A8000640808FB1595ED003235A7FB05356D0997
:101A90006D0005F4F8753544FFF7D6FE00EB8000C5
:101AA00000EB800066687600B0FBF6F6FFF7CCFE30
:101AB00000EB800000EB800063685B00B0FBF3F399
:101AC000A7FB03235B0908FB13684FEAC80808F16A
:101AD0003208A7FB0837C7F3421723682F449F60DB
:101AE00055E0FFF7B1FE00EB800000EB8000656879
:101AF000AD00B0FBF5F5284FA7FB05356D092E01AC
:101B0000FFF7A2FE00EB800000EB80006568AD00EF
:101B1000B0FBF5F9FFF798FE00EB800000EB8000CA
:101B20006568AD00B0FBF5F5A7FB05356D094FF015
:101B3000640808FB15952D013235A7FB05356D09A5
:101B400005F0F0053544FFF77FFE00EB800000EB69
:101B500080006668B600B0FBF6F6FFF775FE00EB96
:101B6000800000EB800063689B00B0FBF3F0A7FBF4
:101B70000030400908FB10684FEA081808F13208E5
:101B8000A7FB0837C7F3431723682F449F60BDE8BE
:101B9000F88300BF001001401F85EB512DE9F04193
:101BA00005460F4616469846069C2B681B6837EA82
:101BB00003030CBF01230023B3421DD1B4F1FF3F47
:101BC000F3D02CB1FEF726FDA0EB0800A042ECD923
:101BD0002A68D36823F4D073D3602A68536923F04A
:101BE00001035361202385F8393085F83A3000230A
:101BF00085F83830032000E00020BDE8F08158B3BC
:101C000010B5044690F839300BB3242384F83930EA
:101C10002268D36823F40053D3602046FFF724FEE4
:101C20002268136923F4904313612268536923F0F7
:101C30002A0353612268D36843F40053D360002021
:101C4000E063202384F8393084F83A3010BD80F8FE
:101C5000383000F02BFBD8E7012070472DE9F04128
:101C600082B01E4690F83930DBB2202B55D10446A5
:101C70000D469046002955D0002A55D090F83830AE
:101C8000012B53D0012380F838300023C363212374
:101C900080F83930FEF7BEFC0746A4F82480A4F88B
:101CA000268010E000963B46002280212046FFF768
:101CB00075FF00283CD12B882268C3F308035360CA
:101CC0002369C3B90235E38C9BB2B3B1E38C013B0A
:101CD0009BB2E384A368B3F5805FE3D000963B46F4
:101CE000002280212046FFF759FF18BB2A7823687D
:101CF0005A600135E7E70135E5E700963B460022EB
:101D000040212046FFF74AFF0346A8B9202284F865
:101D10003920002284F8382000E00223184602B05F
:101D2000BDE8F0810123F9E70123F7E70223F5E796
:101D30000323F3E70323F1E70323EFE708B509489B
:101D4000094B0360094B4360002383605A22C26041
:101D50004FF48042026143618361C3610362FEF715
:101D6000B5FF08BDA4000020005C0040A086010073
:101D70002DE9F04F8DB000240794089409940A943B
:101D80000B940194774B1A6B42F010021A631A6B92
:101D900002F010020192019A02941A6B42F00402BE
:101DA0001A631A6B02F004020292029A03941A6BED
:101DB00042F080021A631A6B02F080020392039AC7
:101DC00004941A6B42F001021A631A6B02F00102CA
:101DD0000492049A05941A6B42F002021A631A6B79
:101DE00002F002020592059A06941A6B42F008026C
:101DF0001A631B6B03F008030693069B22466821B7
:101E00005948FEF761FDDFF878810122114640460E
:101E1000FEF75AFD22464FF210015448FEF754FDDA
:101E2000682307930126089609940A9407A94E4847
:101E3000FEF766FC0796089609940A9407A940469F
:101E4000FEF75EFC082307930225089509940A947F
:101E50004FF00509CDF82C9007A94046FEF750FC3D
:101E60000796434B08930994424F07A93846FEF75B
:101E700047FC10230793089509940A944FF0060B2A
:101E8000CDF82CB007A93846FEF73AFCE0230793BB
:101E9000089509940A94CDF82C9007A93846FEF7C6
:101EA0002FFC4FF0040ACDF81CA00894099407A950
:101EB0003148FEF725FC4FF4806307930895099499
:101EC0000A94CDF82C9007A92B48FEF719FC4FF285
:101ED00010030793089609940A9407A92348FEF76C
:101EE0000FFC4FF4A4530793089509940A94CDF876
:101EF0002CB007A94046FEF703FC4FF4007307938C
:101F00000894099407A93846FEF7FAFB4FF4E0530A
:101F10000793089509940A940A230B9307A9384656
:101F2000FEF7EEFB202307930894099407A90F48B6
:101F3000FEF7E6FB4FF410730793122308930996FC
:101F40000A94CDF82CA007A90B48FEF7D9FB0795FA
:101F50000A4B0893099407A90348FEF7D1FB0DB07B
:101F6000BDE8F08F0038024000100240000C024033
:101F70000000111000000240000402400000121096
:101F80000008024008B50848084B03604FF4E133ED
:101F9000436000238360C36003610C22426183615C
:101FA000C361FFF72CFE08BDF8000020004400408C
:101FB00000B585B08DF80C008DF80D104FF0FF3393
:101FC0000093022303AAB4210248FEF70DFF05B0D7
:101FD0005DF804FBA400002000B585B004AA02F857
:101FE000010D4FF0FF3300930123B4210248FEF7A7
:101FF000FBFE05B05DF804FBA4000020F0B583B043
:102000000D461646114600F0C3FA04460570094D08
:102010004FF47A77009701230246B4212846FEF751
:10202000E3FE009733462246B4212846FEF79EFF82
:1020300003B0F0BDA400002010B5B2B004460122E8
:102040002021FFF7DBFFB42322780949684600F01E
:10205000B7FA2378812B02D0002032B010BD0124C2
:10206000044B1C70F420FFF7B7FF2046F5E700BFD4
:10207000A42C00088C00002010B50446FFF7DCFFFC
:10208000012211462046FFF7B9FF217801F08701B0
:1020900041F0180121700120FFF78AFF10BD0000F8
:1020A00030B595B03022002108A800F0C1F9002415
:1020B0000394049405940694079401941B4B1A6CA2
:1020C00042F080521A641B6C03F080530193019B11
:1020D0000294174B1A6842F480421A601B6803F49A
:1020E00080430293029B0225089501230B93102342
:1020F0000C930E950F94082310933223119304230D
:1021000012930723139308A8FFF7A4F80F23039350
:10211000049505944FF4C05306934FF4A0530793CE
:10212000214603A8FFF7CEFA15B030BD00380240B3
:102130000070004010B5B2B0082000F071F90446FC
:10214000FEF742FAFFF7ACFFFFF712FEFFF71AFFA8
:10215000FFF7F4FD1448FEF7B9FD2046FFF78CFFAA
:10216000042202212046FFF749FF2378627842EAE1
:1021700003220E494A80A078E37843EA00238B804B
:102180000B49684600F01CFA6846FEF7A1F94FF0CB
:10219000FF3382B269460748FFF760FD4FF4FA60EB
:1021A000FEF73EFADCE700BFA40000208C00002010
:1021B000BC2C0008F800002000B583B0002100917D
:1021C0000C4B5A6C42F480425A645A6C02F48042BE
:1021D0000092009A01911A6C42F080521A641B6CB2
:1021E00003F080530193019B0720FEF72DFA03B003
:1021F0005DF804FB003802402DE9F04389B000236C
:10220000039304930593069307930268234B9A4222
:1022100002D009B0BDE8F08300250095204C236B67
:1022200043F004032363236B03F004030093009B38
:102230000195236B43F001032363236B03F0010338
:102240000193019B4FF4007303934FF01209CDF8F3
:1022500010904FF00108CDF814800327069704264C
:10226000079603A90F48FEF74BFA4FF480730393C8
:10227000CDF81090CDF814800697079603A90A4868
:10228000FEF73EFA0295236C43F400032364236CAB
:1022900003F400030293029BBBE700BF005C004015
:1022A00000380240000802400000024000B589B03A
:1022B0000023039304930593069307930268164B38
:1022C0009A4202D009B05DF804FB0021019103F5A8
:1022D000FA331A6C42F400321A641A6C02F40032B7
:1022E0000192019A02911A6B42F001021A631B6B70
:1022F00003F001030293029B0C2303930223049334
:1023000001230593032306930723079303A9034897
:10231000FEF7F6F9D6E700BF004400400000024097
:102320007047FEE7FEE7FEE7FEE77047704770473D
:1023300008B5FEF763F908BD0F49D1F8883043F4BA
:102340007003C1F888300D4B1A6842F001021A6020
:10235000002098601A6822F0847222F480321A6099
:10236000074A5A601A6822F480221A60D8604FF037
:1023700000638B60704700BF00ED00E00038024052
:1023800010300024DFF834D0002103E00C4B5B5800
:10239000435004310B480C4B42189A42F6D30B4A77
:1023A00002E0002342F8043B094B9A42F9D3FFF7BD
:1023B000C3FF00F011F8FFF7BDFE704700000220D8
:1023C000082D000800000020700000207000002090
:1023D0003C010020FEE7000070B50D4E0D4CA41B23
:1023E000A4100025A54209D10B4E0C4C00F042FC74
:1023F000A41BA4100025A54205D170BD56F82530B8
:1024000098470135EEE756F8253098470135F2E751
:10241000002D0008002D0008002D0008042D0008E4
:10242000024B0146186800F059B800BF0C000020AC
:1024300002440346934200D1704703F8011BF9E7B9
:1024400038B50546002945D051F8043C0C1F002B37
:10245000B8BFE41800F0D4F81F4A1368104633B927
:10246000636014602846BDE8384000F0CAB8A34253
:102470000CD921686218934204BF1A685B686360D4
:1024800004BF521822600460ECE713465A680AB190
:10249000A242FAD919685818A0420BD12068014409
:1024A000581882421960DDD1106852685A600144A0
:1024B0001960D7E702D90C232B60D3E720682118D5
:1024C0008A4204BF11685268626004BF0918216023
:1024D0005C60C7E738BD00BF9400002070B5CD1C1C
:1024E00025F0030508350C2D38BF0C25002D0646B8
:1024F00001DBA94203D90C233360002070BD00F03A
:102500007FF8214A1468214691B9204C23681BB9F1
:10251000304600F045F820602946304600F040F88B
:10252000431C24D10C233360304600F06AF8E4E702
:102530000B685B1B18D40B2B0FD90B60CD50CC183C
:10254000304600F05EF804F10B00231D20F0070078
:10255000C31AD3D05A42E250D0E78C424B6816BF20
:10256000636013600C46EBE70C464968CCE7C41C7B
:1025700024F00304A04205D0211A304600F010F8E0
:102580000130CFD02560DBE79400002098000020C8
:10259000024B0A460146186800F034B80C000020CF
:1025A00038B5064C002305460846236000F054FB6E
:1025B000431C02D1236803B12B6038BD38010020D1
:1025C0000EB400B59CB01DAB029006906FF00041B8
:1025D000094807910491094953F8042B05910068B3
:1025E000019302A900F08EF8029B00221A701CB021
:1025F0005DF804EB03B070470C0000200802FFFFF9
:1026000070477047F8B5074614460E4621B9114683
:10261000BDE8F840FFF762BF22B9FFF711FF25467A
:102620002846F8BD00F010FBA0420FD221463846E4
:10263000FFF754FF05460028F2D03146224600F04D
:10264000DFFA31463846FFF7FBFEE9E73546E7E7B4
:102650002DE9F0478E689E4282460C469046994688
:1026600037D88A8912F4906F31D0256809696F1ABA
:102670006569022305EB450595FBF3F509F10103B7
:102680003B449D4238BF1D46530530D52946FFF7D0
:1026900025FF064650B90C23CAF80030A38943F041
:1026A0004003A3814FF0FF30BDE8F0873A4621692F
:1026B00000F0A6FAA38923F4906343F08003A3817A
:1026C000266165613E44ED1B2660A5604E464E4581
:1026D00000D94E4632464146206800F09CFAA36875
:1026E0009B1BA36023681E4426600020DCE72A466B
:1026F000FFF788FF06460028E2D121695046FFF720
:102700009FFEC8E72DE9F04F9DB0804603938B896B
:102710001D060C4616460FD50B696BB94021FFF715
:10272000DDFE2060206128B90C23C8F800304FF08E
:10273000FF30C7E0402363610023099320238DF815
:10274000293030238DF82A304FF0010B37463D46B3
:1027500015F8013B0BB1252B3ED1B7EB060A0BD088
:102760005346324621464046FFF772FF013000F0E3
:10277000A480099B534409933B78002B00F09D8073
:1027800000234FF0FF32CDE90523049307938DF822
:1027900053301A932F46052217F8011B4F48FDF7B7
:1027A0009FFE049BD0B9D90644BF20228DF8532048
:1027B0001A0744BF2B228DF853202A782A2A15D0D5
:1027C000079A2F4600200A25394611F8013B303B75
:1027D000092B4DD9B8B10FE02F46B8E73F4A801A10
:1027E0000BFA00F0184304903D46D3E7039A111DFD
:1027F00012680391002A01DB079204E0524243F081
:102800000203079204933B782E2B0CD17B782A2B62
:1028100033D1039B1A1D1B680392002BB8BF4FF0E6
:10282000FF33023705932E4D397803222846FDF7F2
:1028300057FE38B14023401B03FA00F0049B0343CA
:1028400001370493397827488DF8281006227E1C1A
:10285000FDF746FE002838D0234B13BB039B0733FC
:1028600023F0070308330393099B4B4409936DE757
:1028700005FB023201200F46A6E70023013705932E
:1028800019460A25384610F8012B303A092A03D98F
:10289000002BC8D00591C6E705FB0121012307469F
:1028A000F0E703AB00932246104B04A94046AFF378
:1028B0000080B0F1FF3F8146D6D1A3895B063FF58A
:1028C00036AF09981DB0BDE8F08F03AB00932246E8
:1028D000064B04A9404600F081F8EAE7C42C000842
:1028E000CA2C0008CE2C0008000000005126000869
:1028F0002DE9F04791461F468A680B69DDF8208074
:102900009342B8BF1346C9F8003091F843200646F9
:102910000C4612B10133C9F800302368990642BF52
:10292000D9F800300233C9F80030256815F00605E3
:1029300007D104F1190AE368D9F800209B1AAB42C9
:1029400028DC94F843302268003318BF0123920634
:102950002DD404F1430239463046C047013020D01F
:102960002368E568D9F8002003F00603042B08BFAC
:10297000AD1AA36822690CBF25EAE57500259342CC
:10298000C4BF9B1AED184FF000091A344D451AD1F7
:10299000002008E00123524639463046C047013046
:1029A00003D14FF0FF30BDE8F0870135C3E7E118F0
:1029B0005A1C302081F84300224494F8451082F8D4
:1029C00043100233C5E70123224639463046C0474B
:1029D0000130E6D009F10109D8E700002DE9F04304
:1029E00001F1430C0C46097E85B06E291746064658
:1029F00098460C9A00F0B38022D8632936D00AD8C2
:102A0000002900F0B980582900F0838004F14205C4
:102A100084F8421032E0642901D06929F6D1206897
:102A20001368050603F104012AD51B681160002B09
:102A300003DA2D225B4284F843206F480A2239E0F2
:102A4000732900F09D8008D86F2920D07029DDD12E
:102A5000236843F02003236003E0752917D0782909
:102A6000D4D1782384F84530644855E01368191DA3
:102A70001B68116004F1420584F8423001238CE0A8
:102A80001B68116010F0400F18BF1BB2CFE713682E
:102A90002568181D1060280601D51B6802E068062D
:102AA000FBD51B8854486F2914BF0A220822002135
:102AB00084F843106568A560002DC0F295802168F8
:102AC00021F004012160002B3DD1002D40F08E80CB
:102AD0006546082A0BD12368DB0708D5236962689D
:102AE0009A42DEBF302305F8013C05F1FF35ACEB1F
:102AF00005032361CDF800803B4603AA21463046FA
:102B0000FFF7F6FE01304DD14FF0FF3005B0BDE8C4
:102B1000F083394884F84510136821681D1D1B682F
:102B200015600A060BD5CA0744BF41F02001216099
:102B30001BB9226822F0200222601022B7E74D065E
:102B400048BF9BB2EFE76546B3FBF2F102FB1133DE
:102B5000C35C05F8013D0B460029F5D1B9E71368C0
:102B600025686169181D106028061B6801D5196069
:102B700002E06A06FBD51980002323616546B9E7A8
:102B80001368191D11601D68626800212846FDF751
:102B9000A7FC08B1401B606063682361002384F8D0
:102BA0004330A7E723692A4639463046C0470130FB
:102BB000AAD023689B0713D4E068039B9842B8BF50
:102BC0001846A3E701234A4639463046C04701303C
:102BD0009AD00135E368039A9B1AAB42F2DCEBE72B
:102BE000002504F11909F5E7002BACD1037884F82E
:102BF000423004F142056CE7D52C0008E62C0008B1
:102C000010B5431E0A44914200D110BD11F8014B8A
:102C100003F8014FF7E7884210B501EB020307D82C
:102C2000421E99420AD011F8014B02F8014FF8E711
:102C30008342F5D98118D21AD34200D110BD13F8BE
:102C4000014D01F8014DF7E751F8043C181F002B26
:102C5000BCBF0B58C0187047044A05491368002BC5
:102C600008BF0B4618441060184670479C000020AF
:102C700040010020F8B500BFF8BC08BC9E46704774
:0C2C8000F8B500BFF8BC08BC9E467047C9
:102C8C000000000000000000010203040607080910
:102C9C0000000000010203044857204944203A2058
:102CAC0025642061637475616C2025640D0A000035
:102CBC00434F323D25647C00232D302B2000686C63
:102CCC004C00656667454647003031323334353643
:102CDC00373839414243444546003031323334357C
:0C2CEC00363738396162636465660000A9
:082CF80008D5FF7F0100000078
:042D0000B501000811
:042D04009101000831
:102D080001000000100000000024F4001000002062
:102D180000000000000000000000000000000000AB
:102D2800000000000000000000000000000000009B
:102D3800000000000000000000000000000000008B
:102D4800000000000000000000000000000000007B
:102D5800000000000000000000000000000000006B
:102D6800000000000000000000000000000000005B
:040000050800238547
:00000001FF
